{
  "contractName": "Lottery",
  "abi": [
    {
      "constant": true,
      "inputs": [],
      "name": "manager",
      "outputs": [
        {
          "name": "",
          "type": "address"
        }
      ],
      "payable": false,
      "stateMutability": "view",
      "type": "function"
    },
    {
      "constant": true,
      "inputs": [],
      "name": "pot",
      "outputs": [
        {
          "name": "",
          "type": "uint256"
        }
      ],
      "payable": false,
      "stateMutability": "view",
      "type": "function"
    },
    {
      "constant": true,
      "inputs": [],
      "name": "lotteryStartTime",
      "outputs": [
        {
          "name": "",
          "type": "uint256"
        }
      ],
      "payable": false,
      "stateMutability": "view",
      "type": "function"
    },
    {
      "constant": true,
      "inputs": [],
      "name": "lotteryHasFinished",
      "outputs": [
        {
          "name": "",
          "type": "bool"
        }
      ],
      "payable": false,
      "stateMutability": "view",
      "type": "function"
    },
    {
      "constant": true,
      "inputs": [],
      "name": "backUpTime",
      "outputs": [
        {
          "name": "",
          "type": "uint256"
        }
      ],
      "payable": false,
      "stateMutability": "view",
      "type": "function"
    },
    {
      "constant": true,
      "inputs": [],
      "name": "fee",
      "outputs": [
        {
          "name": "",
          "type": "uint256"
        }
      ],
      "payable": false,
      "stateMutability": "view",
      "type": "function"
    },
    {
      "constant": true,
      "inputs": [],
      "name": "winner",
      "outputs": [
        {
          "name": "",
          "type": "address"
        }
      ],
      "payable": false,
      "stateMutability": "view",
      "type": "function"
    },
    {
      "constant": true,
      "inputs": [],
      "name": "totalPlayers",
      "outputs": [
        {
          "name": "",
          "type": "uint256"
        }
      ],
      "payable": false,
      "stateMutability": "view",
      "type": "function"
    },
    {
      "constant": true,
      "inputs": [
        {
          "name": "",
          "type": "uint256"
        }
      ],
      "name": "players",
      "outputs": [
        {
          "name": "",
          "type": "address"
        }
      ],
      "payable": false,
      "stateMutability": "view",
      "type": "function"
    },
    {
      "inputs": [],
      "payable": false,
      "stateMutability": "nonpayable",
      "type": "constructor"
    },
    {
      "constant": false,
      "inputs": [],
      "name": "enter",
      "outputs": [],
      "payable": true,
      "stateMutability": "payable",
      "type": "function"
    },
    {
      "constant": false,
      "inputs": [],
      "name": "pickWinner",
      "outputs": [],
      "payable": false,
      "stateMutability": "nonpayable",
      "type": "function"
    },
    {
      "constant": false,
      "inputs": [],
      "name": "claimWinnings",
      "outputs": [],
      "payable": false,
      "stateMutability": "nonpayable",
      "type": "function"
    },
    {
      "constant": false,
      "inputs": [],
      "name": "forceLotteryEnd",
      "outputs": [],
      "payable": false,
      "stateMutability": "nonpayable",
      "type": "function"
    },
    {
      "constant": true,
      "inputs": [],
      "name": "getPlayers",
      "outputs": [
        {
          "name": "",
          "type": "address[]"
        }
      ],
      "payable": false,
      "stateMutability": "view",
      "type": "function"
    },
    {
      "constant": true,
      "inputs": [],
      "name": "getLotteyFinishTime",
      "outputs": [
        {
          "name": "",
          "type": "uint256"
        }
      ],
      "payable": false,
      "stateMutability": "view",
      "type": "function"
    }
  ],
  "bytecode": "0x608060405234801561001057600080fd5b50336000806101000a81548173ffffffffffffffffffffffffffffffffffffffff021916908373ffffffffffffffffffffffffffffffffffffffff1602179055506000600460146101000a81548160ff021916908315150217905550670de0b6b3a7640000600581905550610e10600781905550610db4806100936000396000f3fe608060405260043610610105576000357c010000000000000000000000000000000000000000000000000000000090048063a9d9f118116100a7578063dfbf53ae11610076578063dfbf53ae14610318578063e97dcb621461036f578063f60cdcf614610379578063f71d96cb146103a457610105565b8063a9d9f1181461027c578063b401faf1146102ab578063d79d982e146102c2578063ddca3f43146102ed57610105565b80635d495aea116100e35780635d495aea146101b75780638b5b9ccc146101ce578063a12793581461023a578063a36b6aea1461025157610105565b8063481c6a751461010a5780634ba2363a146101615780634f4bcc761461018c575b600080fd5b34801561011657600080fd5b5061011f61041f565b604051808273ffffffffffffffffffffffffffffffffffffffff1673ffffffffffffffffffffffffffffffffffffffff16815260200191505060405180910390f35b34801561016d57600080fd5b50610176610444565b6040518082815260200191505060405180910390f35b34801561019857600080fd5b506101a161044a565b6040518082815260200191505060405180910390f35b3480156101c357600080fd5b506101cc610458565b005b3480156101da57600080fd5b506101e361074c565b6040518080602001828103825283818151815260200191508051906020019060200280838360005b8381101561022657808201518184015260208101905061020b565b505050509050019250505060405180910390f35b34801561024657600080fd5b5061024f6107da565b005b34801561025d57600080fd5b5061026661087a565b6040518082815260200191505060405180910390f35b34801561028857600080fd5b50610291610880565b604051808215151515815260200191505060405180910390f35b3480156102b757600080fd5b506102c0610893565b005b3480156102ce57600080fd5b506102d7610b13565b6040518082815260200191505060405180910390f35b3480156102f957600080fd5b50610302610b19565b6040518082815260200191505060405180910390f35b34801561032457600080fd5b5061032d610b1f565b604051808273ffffffffffffffffffffffffffffffffffffffff1673ffffffffffffffffffffffffffffffffffffffff16815260200191505060405180910390f35b610377610b45565b005b34801561038557600080fd5b5061038e610cdb565b6040518082815260200191505060405180910390f35b3480156103b057600080fd5b506103dd600480360360208110156103c757600080fd5b8101908080359060200190929190505050610ce1565b604051808273ffffffffffffffffffffffffffffffffffffffff1673ffffffffffffffffffffffffffffffffffffffff16815260200191505060405180910390f35b6000809054906101000a900473ffffffffffffffffffffffffffffffffffffffff1681565b60035481565b600060075460065401905090565b6000809054906101000a900473ffffffffffffffffffffffffffffffffffffffff1673ffffffffffffffffffffffffffffffffffffffff163373ffffffffffffffffffffffffffffffffffffffff1614806104c6575060011515600460149054906101000a900460ff161515145b610538576040517f08c379a00000000000000000000000000000000000000000000000000000000081526004018080602001828103825260168152602001807f43616e6e6f74207069636b2077696e6e6572207965740000000000000000000081525060200191505060405180910390fd5b6003600254116105b0576040517f08c379a000000000000000000000000000000000000000000000000000000000815260040180806020018281038252601e8152602001807f4e6f7420656e6f75676820506c6179657273206861766520706c61796564000081525060200191505060405180910390fd5b600073ffffffffffffffffffffffffffffffffffffffff16600460009054906101000a900473ffffffffffffffffffffffffffffffffffffffff1673ffffffffffffffffffffffffffffffffffffffff1614610674576040517f08c379a00000000000000000000000000000000000000000000000000000000081526004018080602001828103825260178152602001807f416c7265616479207069636b656420612077696e6e657200000000000000000081525060200191505060405180910390fd5b6000600254424460405160200180838152602001828152602001925050506040516020818303038152906040528051906020012060019004816106b357fe5b069050600181815481106106c357fe5b9060005260206000200160009054906101000a900473ffffffffffffffffffffffffffffffffffffffff16600460006101000a81548173ffffffffffffffffffffffffffffffffffffffff021916908373ffffffffffffffffffffffffffffffffffffffff1602179055506001600460146101000a81548160ff02191690831515021790555050565b606060018054806020026020016040519081016040528092919081815260200182805480156107d057602002820191906000526020600020905b8160009054906101000a900473ffffffffffffffffffffffffffffffffffffffff1673ffffffffffffffffffffffffffffffffffffffff1681526020019060010190808311610786575b5050505050905090565b600754600654014211610855576040517f08c379a000000000000000000000000000000000000000000000000000000000815260040180806020018281038252601b8152602001807f486173206e6f742072656163686564206261636b75702074696d65000000000081525060200191505060405180910390fd5b6001600460146101000a81548160ff021916908315150217905550610878610458565b565b60065481565b600460149054906101000a900460ff1681565b60011515600460149054906101000a900460ff1615151461091c576040517f08c379a000000000000000000000000000000000000000000000000000000000815260040180806020018281038252601c8152602001807f4c6f747465727920686173206e6f742046696e6973686564207965740000000081525060200191505060405180910390fd5b600460009054906101000a900473ffffffffffffffffffffffffffffffffffffffff1673ffffffffffffffffffffffffffffffffffffffff163373ffffffffffffffffffffffffffffffffffffffff16146109c2576040517f08c379a0000000000000000000000000000000000000000000000000000000008152600401808060200182810382526025815260200180610d646025913960400191505060405180910390fd5b3373ffffffffffffffffffffffffffffffffffffffff166108fc600554600354039081150290604051600060405180830381858888f19350505050158015610a0e573d6000803e3d6000fd5b506000809054906101000a900473ffffffffffffffffffffffffffffffffffffffff1673ffffffffffffffffffffffffffffffffffffffff166108fc3073ffffffffffffffffffffffffffffffffffffffff16319081150290604051600060405180830381858888f19350505050158015610a8d573d6000803e3d6000fd5b506000600460006101000a81548173ffffffffffffffffffffffffffffffffffffffff021916908373ffffffffffffffffffffffffffffffffffffffff16021790555060016000610ade9190610d1d565b600060028190555060006003819055506000600460146101000a81548160ff0219169083151502179055506000600681905550565b60075481565b60055481565b600460009054906101000a900473ffffffffffffffffffffffffffffffffffffffff1681565b60001515600460149054906101000a900460ff16151514610bce576040517f08c379a00000000000000000000000000000000000000000000000000000000081526004018080602001828103825260148152602001807f4c6f7474657279206861732066696e697368656400000000000000000000000081525060200191505060405180910390fd5b670de0b6b3a76400003414610c4b576040517f08c379a00000000000000000000000000000000000000000000000000000000081526004018080602001828103825260208152602001807f596f75206e65656420746f2073656e742065786163746c79203120657468657281525060200191505060405180910390fd5b60013390806001815401808255809150509060018203906000526020600020016000909192909190916101000a81548173ffffffffffffffffffffffffffffffffffffffff021916908373ffffffffffffffffffffffffffffffffffffffff16021790555060028190555060016002541415610cc957426006819055505b34600360008282540192505081905550565b60025481565b60018181548110610cee57fe5b906000526020600020016000915054906101000a900473ffffffffffffffffffffffffffffffffffffffff1681565b5080546000825590600052602060002090810190610d3b9190610d3e565b50565b610d6091905b80821115610d5c576000816000905550600101610d44565b5090565b9056fe596f7520617265206e6f74207468652077696e6e6572206f6620746865204c6f7474657279a165627a7a72305820840cd4bd955d0dad338dcdfdf018e7ea4d8e20b62f268995ba4f7bf52148a3170029",
  "source": "pragma solidity 0.5.8;\n\ncontract Lottery {\n    \n    address payable public manager;\n    address[] public players;\n    uint public totalPlayers;\n    uint public pot;\n    address public winner;\n    bool public lotteryHasFinished;\n    uint public fee;\n    \n    uint public lotteryStartTime;\n    uint public backUpTime;\n    \n   \n    constructor() public{\n        manager = msg.sender;\n        lotteryHasFinished = false;\n        //Manager's fee\n        fee = 1 ether;\n        backUpTime = 1 hours;\n    }\n    \n    function enter() public payable {\n        require(lotteryHasFinished == false, 'Lottery has finished');\n        require(msg.value == 1 ether, 'You need to sent exactly 1 ether');\n        totalPlayers = players.push(msg.sender);\n        \n        //Lottery starts when it receives the first payment\n        if(totalPlayers == 1) lotteryStartTime = now;\n        \n        //Add value sent to pot\n        pot += msg.value;\n    }\n    \n    function pickWinner() public{\n        //If manager calls the function or has passed 1 day since start of lottery\n        require(msg.sender == manager || lotteryHasFinished == true, 'Cannot pick winner yet');\n        require(totalPlayers > 3, 'Not enough Players have played');\n        require(winner == address(0), 'Already picked a winner');\n        \n        //Pick a random number between 0 and total players\n        uint randomNum = uint256(keccak256(abi.encodePacked(block.timestamp, block.difficulty))) % totalPlayers;\n\n        //Retrieve winner\n        winner = players[randomNum];\n\n        lotteryHasFinished = true;\n    }\n    \n    function claimWinnings() public {\n        require(lotteryHasFinished == true, 'Lottery has not Finished yet');\n        require(msg.sender == winner, 'You are not the winner of the Lottery');\n    \n        //send funds to winner minus fee\n        msg.sender.transfer(pot - fee);\n        \n        //send remaining balance of contract to manager\n        manager.transfer(address(this).balance);\n        \n        //reset variables when winnings are claimed\n        winner = address(0);\n        delete players;\n        totalPlayers = 0;\n        pot = 0;\n        lotteryHasFinished = false;\n        lotteryStartTime = 0;\n    }\n    \n    //Back up function for players to call if manager does not end lottery\n    function forceLotteryEnd() public {\n        require(now > lotteryStartTime + backUpTime, 'Has not reached backup time');\n        lotteryHasFinished = true;\n        pickWinner();\n    }\n    \n    function getPlayers() public view returns(address[] memory){\n        return players;\n    }\n    \n    function getLotteyFinishTime() public view returns(uint){\n        return (lotteryStartTime + backUpTime);\n    }\n    \n}",
  "sourcePath": "/home/wafflemakr/Desktop/GITHUB/lottery/contracts/Lottery.sol",
  "compiler": {
    "name": "solc",
    "version": "0.5.8+commit.23d335f2.Emscripten.clang"
  },
  "schemaVersion": "3.0.2",
  "updatedAt": "2019-05-19T00:01:01.567Z",
  "devdoc": {
    "methods": {}
  },
  "userdoc": {
    "methods": {}
  }
}